:020000020000FC
:02000000FFC13E
:0E02000050656E677A68616F205A687500005D
:1004000070E042D0CFEFCDBFCFE3CEBFE0E0F2E06F
:1004100003D030D01DD0FDCF0F932F9308E0009371
:10042000610604E00093620608E10093A40903E377
:100430000093A50900E80093A60900E020ED022B37
:100440000093A70904E0009365062F910F9108958A
:100450000F930091A10905FB0EF0DEF71093A009A0
:100460000F9108951F931791103011F0F1DFFBCF1A
:100470001F9108950F930091A10907FB0EF0DEF77D
:100480001091A0090F9108950F9302E0009350007E
:100490000091510001FB0EF0DEF708ED00933400EF
:1004A00001E00093400008ED009334007093410098
:0404B0000F9108950B
:00000001FF
