:100000000C94FE000C9424010C9424010C94240103
:100010000C9424010C9424010C9424010C942401CC
:100020000C9424010C9424010C9424010C942401BC
:100030000C9424010C9424010C945C010C94240174
:100040000C9424010C9424010C9424010C9424019C
:100050000C9424010C9424010C9424010C9424018C
:100060000C9424010C9424010C9424010C9424017C
:100070000C9424010C9424010C9424010C9424016C
:100080000C9424010C9424010C9424010C9424015C
:100090000C9424010C9424010C9424010C9424014C
:1000A0000C9424010C9424010C9424010C9424013C
:1000B0000C9424010C9424010C9424010C948501CB
:1000C0000C9424010C9424010C9424010C9424011C
:1000D0000C9424010C9424010C9424010C9424010C
:1000E0000C9424010C9424010C9424010C942401FC
:1000F0000C9424010C9424010C9424010C942401EC
:100100000C9424010C9424010C9424010C942401DB
:100110000C9424010C9424010C9424010C942401CB
:100120000C9424010C9424010C9424010C942401BB
:100130000C9424010C9424010C9424010C942401AB
:100140000C9424010C9424010C9424010C9424019B
:100150000C9424010C9424010C9424010C9424018B
:100160000C9424010C9424010C9424010C9424017B
:100170000C9424010C9424010C9424010C9424016B
:100180000C9424010C9424010C9424010C9424015B
:100190000C9424010C9424010C9424010C9424014B
:1001A0000C9424010C9424010C9424010C9424013B
:1001B0000C9424010C9424010C9424010C9424012B
:1001C0000C9424010C9424010C9424010C9424011B
:1001D0000C9424010C9424010C9424010C9424010B
:1001E0000C9424010C9424010C9424010C942401FB
:1001F0000C9424010C9424010C94240111241FBE9E
:10020000CFEFCDBFDFE3DEBF00E00CBF18BE19BEED
:100210001ABE1BBE10E2A0E0B0E2E6EAF6E000E0A3
:100220000BBF02C007900D92A030B107D9F71BBEDB
:1002300022E2A0E0B0E201C01D92AF30B207E1F7C8
:100240000E94BF010C9451030C94000082E0809343
:100250005000E1E5F0E0808181FFFDCF88ED84BFB3
:1002600091E09093400084BF10924100089588E08F
:100270008093610694E09093620698E19093A409BC
:1002800093E29093A5099DE99093A60991EE90932E
:10029000A709809365060895E1EAF9E08081882343
:1002A000ECF78091A0090895E1EAF9E0908195FFCB
:1002B000FDCF8093A00908951F920F920FB60F9261
:1002C000112408B60F9218BE0BB60F921BBE8F9367
:1002D000EF93FF93E0910020F0E0EE0FFF1FE25F4D
:1002E000FF4D808180931B03809100208F5F80935E
:1002F0000020FF91EF918F910F900BBE0F9008BEE1
:100300000F900FBE0F901F9018951F920F920FB66F
:100310000F92112408B60F9218BE10920008109286
:10032000000A0F9008BE0F900FBE0F901F901895F7
:1003300080E7809361068093650687E080936E0670
:100340002FEF30E02093260930932709809300098E
:1003500083E78093010910922C0910922D091092C5
:100360002A0910922B09109228091092290980E479
:1003700080937606809375068093740608950E9494
:1003800026010E9437010E9498010E9498010F2EB9
:10039000F4E6DF2EF02D0F2EFDECCF2EF02D0F2EDC
:1003A000F9E2BF2EF02D0F2EF8E2EF2EF9E0FF2E2E
:1003B000F02D0CE219E0CAE2D9E082E50E94540176
:1003C0008AE30E9454010E944C01809308200E94FD
:1003D00054018091082080538D9D802D112480939D
:1003E00008200E944C01809309208D3089F40E94DE
:1003F00054018AE00E945401809108208B9D812D38
:10040000112482958F7080930820809304204BC024
:100410000E945401809109208053880F982F990FD2
:10042000990F890F809309200E944C0180930B2023
:100430008D30F9F40E9454018AE00E9454018091A9
:1004400008208C9D812D1124282F269526952695F0
:1004500020930820909109209C9D912D1124892F93
:1004600086958695869580930920820F8093042037
:100470001AC00E94540180910B20805380930B205E
:100480002091082090910920920F890F80930420D9
:100490000E944C01809305208D3029F40E94540164
:1004A0008AE00E94540187E40E9454018AE30E947A
:1004B00054010E944C01809307200E9454018091B6
:1004C000072080538D9D802D1124809307200E944A
:1004D0004C0180930D208D3089F40E9454018AE0F4
:1004E0000E945401809107208B9D812D11248295BB
:1004F0008F708093072080930C204BC00E94540182
:1005000080910D208053880F982F990F990F890F94
:1005100080930D200E944C01809306208D30F9F4C9
:100520000E9454018AE00E945401809107208C9D12
:10053000812D1124282F2695269526952093072076
:1005400090910D209C9D912D1124892F8695869543
:10055000869580930D20820F80930C201AC00E94F4
:10056000540180910620805380930620209107201B
:1005700090910D20920F890F80930C200E944C01C6
:10058000809305208D3029F40E9454018AE00E9456
:10059000540182E40E9454018AE30E9454010E94A3
:1005A0004C01809303200E945401809103208053CA
:1005B0008D9D802D1124809303200E944C018093F7
:1005C00002208D3089F40E9454018AE00E94540177
:1005D000809103208B9D812D112482958F708093B3
:1005E0000320809301204BC00E945401809102207F
:1005F0008053880F982F990F990F890F80930220AD
:100600000E944C0180930A208D30F9F40E9454011D
:100610008AE00E945401809103208C9D812D112439
:10062000282F269526952695209303209091022029
:100630009C9D912D1124892F869586958695809372
:100640000220820F809301201AC00E9454018091E1
:100650000A20805380930A20209103209091022049
:10066000920F890F809301200E944C0180930520F6
:100670008D3029F40E9454018AE00E945401809137
:10068000042090E0F701808391838091012090E025
:10069000F8018083918380910C2090E08883998376
:0606A0008CCEF894FFCFA0
:00000001FF
